:100000000C942A000C9447000C9447000C94470071
:100010000C9447000C9447000C9447000C94470044
:100020000C9447000C9447000C9447000C94470034
:100030000C9447000C9447000C9447000C94470024
:100040000C9447000C9447000C9447000C94470014
:100050000C94470011241FBECFE5D8E0DEBFCDBF12
:1000600010E0A0E6B0E0E2E2F3E102C005900D92FC
:10007000A43BB107D9F720E0A4EBB0E001C01D928A
:10008000A93BB207E1F70E94D9040C948F090C94A4
:1000900000000F931F93CF93DF931F92CDB7DEB76E
:1000A0000E94900100E010E007C062E070E0C8012B
:1000B0000E94B7030F5F1F4F08301105B4F340E0F3
:1000C00060E081E00E94DE0419820E9456060E94D0
:1000D000790262E370E080E090E00E947D060E9479
:1000E0004A040E94CD01C197E1F760E080E00E94E0
:1000F000140384E790E00E94010360E081E00E9425
:10010000140386E890E00E94010310E03BC0AE01BA
:100110004F5F5F4F60E081E00E94DC0589818823AA
:10012000B1F30BC0813049F4909160009C3311F41D
:1001300093EC01C09CE3909360008111F3CF07C062
:10014000AE014F5F5F4F60E081E00E94DC05898176
:100150008111F6CF62E370E080E090E00E947D06BE
:1001600060E081E00E941403809160008C3329F4E8
:100170008CE890E00E94010304C086E890E00E94B1
:1001800001031F5F143650F20F90DF91CF911F9142
:100190000F910895EF92FF920F931F93CF93DF93E8
:1001A0001F92CDB7DEB70E94CD01C297E9F410923D
:1001B000B40062E070E08FEF90E00E94C40381E041
:1001C0000E9430026AE070E080E090E00E947D06CC
:1001D00060E080E00E94140382E990E00E94010345
:1001E0000E94CD01C197E1F7CE0101960E9457040C
:1001F0008981863450F08091B4008132C0F58F5FE0
:100200008093B4000EE11FE034C08E3128F01092CC
:10021000B4000EE11FE02DC0843120F11092B40033
:1002200062E070E08FEF90E00E94C40364E670E04B
:1002300080E090E00E947D0610916000E12CF12C9E
:100240000BC04EE150E062E070E0812F90E00E9430
:10025000C9038FEFE81AF80A85E0E816F1048CF379
:100260000EE107C01092B4000EE110EF02C002E3ED
:100270001FE0402F50E062E070E0812F90E00E948C
:10028000C90381E00E9430026AE070E080E090E003
:100290000E947D0660E080E00E94140387E990E000
:1002A0000E940103602F70E080E090E00E942C0328
:1002B0008EE990E00E9401031C33C1F018F41F3056
:1002C00031F018C0133C69F0103F31F013C085EADB
:1002D00090E00E9401030EC087EA90E00E940103B3
:1002E00009C089EA90E00E94010304C08BEA90E013
:1002F0000E94010360E081E00E9414038DEA90E017
:100300000E940103698170E080E090E00E942C036C
:100310000F90DF91CF911F910F91FF90EF90089573
:1003200041E065E081E00E94DE0441E066E081E0BA
:100330000E94DE0441E067E081E00E94DE0440E0CC
:1003400062E081E00E94DE0440E063E081E00E9420
:10035000DE0440E064E081E00E94DE0441E065E00C
:1003600081E00E945D0541E066E081E00E945D055C
:1003700041E067E081E00E945D0541E062E081E0EC
:100380000E945D0541E063E081E00E945D0541E07F
:1003900064E081E00E945D050895CF92DF92EF92C4
:1003A000FF920F931F93CF93DF931F92CDB7DEB7CA
:1003B00010E00AC0E12FF0E0E359FF4F41E0608117
:1003C00081E00E945D051F5F1330A0F300E03BC099
:1003D000C02ED12CF601E359FF4F40E0608181E04F
:1003E0000E945D0510E024C0E12EF12CF701E659D2
:1003F000FF4FAE014F5F5F4F608181E00E94DC05DF
:100400009981911114C0F701E659FF4F41E06081D5
:1004100081E00E945D05C701880F991F8E0D9F1D09
:100420008F599F4FFC01EC0DFD1D80810FC01F5F98
:100430001330D0F2F601E359FF4F41E0608181E0D3
:100440000E945D050F5F033018F280E00F90DF918E
:10045000CF911F910F91FF90EF90DF90CF90089573
:10046000CF93C82F0E94560640E061E080E00E94D2
:100470005D0540E062E080E00E945D0540E063E0F1
:1004800080E00E945D058BB39C2F907F8F70892B3D
:100490008BBB41E063E080E00E945D0561E070E0BD
:1004A00080E090E00E947D0640E063E080E00E94F2
:1004B0005D0520E1C29FC00111249BB39F70892B71
:1004C0008BBB41E063E080E00E945D0561E070E08D
:1004D00080E090E00E947D0640E063E080E00E94C2
:1004E0005D0565E070E080E090E00E947D06CF91C0
:1004F00008950E94560641E061E080E00E94DE041B
:1005000041E062E080E00E94DE0441E063E080E0E0
:100510000E94DE0441E064E080E00E94DE0441E0ED
:1005200065E080E00E94DE0441E066E080E00E9439
:10053000DE0441E067E080E00E94DE0464E170E0F8
:1005400080E090E00E947D0683E30E94300282E317
:100550000E94300288E20E9430028CE00E94300249
:1005600086E00E94300282E00E94300281E00E9418
:1005700030020895CF93C82F41E061E080E00E94EF
:100580005D0540E062E080E00E945D0540E063E0E0
:1005900080E00E945D058BB39C2F907F8F70892B2C
:1005A0008BBB41E063E080E00E945D0561E070E0AC
:1005B00080E090E00E947D0640E063E080E00E94E1
:1005C0005D0520E1C29FC00111249BB39F70892B60
:1005D0008BBB41E063E080E00E945D0561E070E07C
:1005E00080E090E00E947D0640E063E080E00E94B1
:1005F0005D0565E070E080E090E00E947D06CF91AF
:1006000008950F931F93CF938C01C0E003C00E9405
:10061000BA02CF5FF801EC0FF11D80818111F7CF95
:10062000CF911F910F910895CF93DF9300D0CDB755
:10063000DEB790E8998390EC9A83E1E0F0E0EC0F6C
:10064000FD1FE80FF11D8081860F0E9430020F9080
:100650000F90DF91CF9108951F93CF93DF93CDB784
:10066000DEB72A970FB6F894DEBF0FBECDBF992331
:10067000DCF590958095709561957F4F8F4F9F4FDA
:1006800010E013C02AE030E040E050E00E944E0944
:10069000E1E0F0E0EC0FFD1FE10FF11D605D608314
:1006A000622F732F842F952F1F5F161617061806BB
:1006B000190644F3E1E0F0E0EC0FFD1FE10FF11D3E
:1006C0008DE280831F5F0DC0E12FF0E0319781E064
:1006D00090E08C0F9D1FE80FF91F80810E94BA02E5
:1006E00011501111F1CF39C06115710581059105C6
:1006F00021F480E30E94BA0230C0161617061806CD
:100700001906ACF02AC02AE030E040E050E00E9438
:100710004E09E1E0F0E0EC0FFD1FE10FF11D605D1F
:100720006083622F732F842F952F1F5F01C010E00D
:10073000161617061806190634F30DC0E12FF0E05F
:10074000319781E090E08C0F9D1FE80FF91F8081A9
:100750000E94BA0211501111F1CF2A960FB6F894E7
:10076000DEBF0FBECDBFDF91CF911F910895982FAF
:10077000862F41E0692F0E94DE0480E0089541E069
:100780000E941A0680E0089540E00E941A0680E068
:1007900008958F929F92AF92BF92CF92DF92EF9285
:1007A000FF92CF93DF93C82FD62F69017A0120E003
:1007B00030E048E452E4C701B6010E94B8081816B8
:1007C000CCF420E030E048E452E4C701B6010E94D6
:1007D0001507209170003091710040917200509186
:1007E00073000E94BD089B01AC01C701B6010E94C5
:1007F000160718C0A701960160E070E088E492E453
:100800000E94150720917000309171004091720094
:10081000509173000E94BD089B01AC01C701B60155
:100820000E94150720E030E048EC52E40E94820765
:1008300020E030E048EC52E40E94BD086B017C01EE
:100840009B01AC0160E070E088EC92E40E94150727
:100850004B015C016D2F8C2F0E94BF03C701B601B5
:100860000E94FB070E947D066D2F8C2F0E94C403FF
:10087000C501B4010E94FB070E947D0680E0DF9164
:10088000CF91FF90EF90DF90CF90BF90AF909F906F
:100890008F90089541E061E083E00E94DE0440E033
:1008A00062E083E00E94DE040E94EE0608950F934A
:1008B0001F93CF93DF9300D01F92CDB7DEB78C018B
:1008C00019821B821A8241E061E083E00E945D058B
:1008D0006AE070E080E090E00E94B90640E061E0EC
:1008E00083E00E945D05AE014F5F5F4F62E083E0F1
:1008F0000E94DC0541E067E081E00E945D0507C0E1
:10090000AE014F5F5F4F62E083E00E94DC058981AA
:100910008111F6CF0E94010707C0AE014F5F5F4F04
:1009200062E083E00E94DC0589818823B1F341E025
:1009300065E081E00E945D0580E090E00E94120782
:1009400007C0AE014F5F5F4F62E083E00E94DC05AD
:1009500089818111F6CFCE0102960E940C0741E0F9
:1009600066E081E00E945D056A817B81660F771FEA
:10097000660F771F660F771F80E090E00E942A08BD
:1009800026E933E44BE85CE30E94BD080E94F407CB
:100990006F3F710519F014F06FEF70E0F80160839C
:1009A00080E00F900F900F90DF91CF911F910F91EA
:1009B00008950E9449000E94CA00FDCF442319F007
:1009C0004130E9F174C0813099F028F08230E9F0CB
:1009D000833041F16EC02AB381E090E002C0880FFD
:1009E000991F6A95E2F7809582238ABB80E008957B
:1009F00027B381E090E002C0880F991F6A95E2F763
:100A00008095822387BB80E0089524B381E090E045
:100A100002C0880F991F6A95E2F78095822384BBF4
:100A200080E0089521B381E090E002C0880F991F13
:100A30006A95E2F78095822381BB80E0089581303A
:100A400091F028F08230D9F0833029F134C02AB3F4
:100A500081E090E002C0880F991F6A95E2F7822B2F
:100A60008ABB80E0089527B381E090E002C0880F40
:100A7000991F6A95E2F7822B87BB80E0089524B323
:100A800081E090E002C0880F991F6A95E2F7822BFF
:100A900084BB80E0089521B381E090E002C0880F1C
:100AA000991F6A95E2F7822B81BB80E0089581E06F
:100AB000089581E0089581E00895442319F04130BC
:100AC000E9F174C0813099F028F08230E9F0833088
:100AD00041F16EC02BB381E090E002C0880F991FF6
:100AE0006A95E2F7809582238BBB80E0089528B356
:100AF00081E090E002C0880F991F6A95E2F7809527
:100B0000822388BB80E0089525B381E090E002C095
:100B1000880F991F6A95E2F78095822385BB80E054
:100B2000089522B381E090E002C0880F991F6A9572
:100B3000E2F78095822382BB80E00895813091F0B6
:100B400028F08230D9F0833029F134C02BB381E012
:100B500090E002C0880F991F6A95E2F7822B8BBB49
:100B600080E0089528B381E090E002C0880F991FCB
:100B70006A95E2F7822B88BB80E0089525B381E077
:100B800090E002C0880F991F6A95E2F7822B85BB1F
:100B900080E0089522B381E090E002C0880F991FA1
:100BA0006A95E2F7822B82BB80E0089581E0089588
:100BB00081E0089581E00895813099F028F0823035
:100BC000E9F0833041F134C089B390E002C09595DB
:100BD00087956A95E2F7817089BBFA01808380E08E
:100BE000089586B390E002C0959587956A95E2F7DF
:100BF000817086BBFA01808380E0089583B390E022
:100C000002C0959587956A95E2F7817083BBFA01DA
:100C1000808380E0089580B390E002C09595879529
:100C20006A95E2F7817080BBFA01808380E00895C5
:100C300081E00895613099F028F06230E9F0633086
:100C400041F10895411105C09BB3809589238BBB69
:100C50000895413051F59BB3892B8BBB0895411109
:100C600005C098B38095892388BB08954130E9F485
:100C700098B3892B88BB0895411105C095B3809521
:100C8000892385BB0895413081F495B3892B85BBB9
:100C90000895411105C092B38095892382BB0895C0
:100CA000413019F492B3892B82BB089583B78F77B3
:100CB00083BF83B78F7B83BF83B7877F83BF83B7B0
:100CC0008F7E83BF83B78F7D83BF80E0089583B716
:100CD000816083BF83B7826083BF83B78B7F83BF0D
:100CE00080E0089583B78E7F83BF83B78D7F83BFF6
:100CF00083B78B7F83BF80E008950E942A082FE688
:100D000032E143E050E40E9482070E94FB076093B7
:100D1000B5007093B6008093B7009093B80012BEF0
:100D20000E94670640E050E0BA010AC008B600FE23
:100D3000FDCF88B7816088BF4F5F5F4F6F4F7F4F98
:100D40008091B5009091B600A091B700B091B80025
:100D5000481759076A077B0748F31092B5001092AD
:100D6000B6001092B7001092B8000E94720680E0A0
:100D70000895DC01CB01072E7BE0B695A7959795EA
:100D800087957A95D1F7702D8093B5009093B60032
:100D9000A093B700B093B80012BE0E94670640E06F
:100DA00050E0BA010AC008B600FEFDCF88B78160E6
:100DB00088BF4F5F5F4F6F4F7F4F8091B50090911D
:100DC000B600A091B700B091B800481759076A075C
:100DD0007B0748F30E94720680E008958FB58E7FEE
:100DE0008FBD8FB58D7F8FBD8EB5877F8EBD8EB544
:100DF0008F7E8EBD8FB584608FBD8FB588608FBDAF
:100E000008958EB581608EBD8EB582608EBD8EB523
:100E10008B7F8EBD80E008952CB53DB5FC013183FC
:100E2000208308959DBD8CBD08955058BB27AA27E7
:100E30000E942D070C947E080E94700838F00E94D2
:100E4000770820F039F49F3F19F426F40C946D08CC
:100E50000EF4E095E7FB0C946708E92F0E948F08D9
:100E600058F3BA17620773078407950720F079F4DF
:100E7000A6F50C94B1080EF4E0950B2EBA2FA02D18
:100E80000B01B90190010C01CA01A0011124FF2737
:100E9000591B99F0593F50F4503E68F11A16F04032
:100EA000A22F232F342F4427585FF3CF4695379531
:100EB0002795A795F0405395C9F77EF41F16BA0BF6
:100EC000620B730B840BBAF09150A1F0FF0FBB1FA4
:100ED000661F771F881FC2F70EC0BA0F621F731FED
:100EE000841F48F4879577956795B795F7959E3F4A
:100EF00008F0B0CF9395880F08F09927EE0F9795DB
:100F0000879508950E9496070C947E080E947708A2
:100F100058F00E94700840F029F45F3F29F00C94CB
:100F2000670851110C94B2080C946D080E948F0848
:100F300068F39923B1F3552391F3951B550BBB2708
:100F4000AA2762177307840738F09F5F5F4F220F4D
:100F5000331F441FAA1FA9F335D00E2E3AF0E0E844
:100F600032D091505040E695001CCAF72BD0FE2F8E
:100F700029D0660F771F881FBB1F26173707480722
:100F8000AB07B0E809F0BB0B802DBF01FF279358DA
:100F90005F4F3AF09E3F510578F00C9467080C942F
:100FA000B2085F3FE4F3983ED4F386957795679552
:100FB000B795F7959F5FC9F7880F911D969587950F
:100FC00097F90895E1E0660F771F881FBB1F62172E
:100FD00073078407BA0720F0621B730B840BBA0BEC
:100FE000EE1F88F7E09508950E94FB076894B11101
:100FF0000C94B20808950E94970888F09F5798F0C3
:10100000B92F9927B751B0F0E1F0660F771F881F0D
:10101000991F1AF0BA95C9F714C0B13091F00E9427
:10102000B108B1E008950C94B108672F782F882794
:10103000B85F39F0B93FCCF3869577956795B3954E
:10104000D9F73EF490958095709561957F4F8F4FBD
:101050009F4F0895E89409C097FB3EF490958095C2
:10106000709561957F4F8F4F9F4F9923A9F0F92F6E
:1010700096E9BB279395F695879577956795B795EC
:10108000F111F8CFFAF4BB0F11F460FF1BC06F5FD2
:101090007F4F8F4F9F4F16C0882311F096E911C0E4
:1010A000772321F09EE8872F762F05C0662371F005
:1010B00096E8862F70E060E02AF09A95660F771F19
:1010C000881FDAF7880F9695879597F9089597F90D
:1010D0009F6780E870E060E008959FEF80EC0895DE
:1010E00000240A9416161706180609060895002407
:1010F0000A9412161306140605060895092E039481
:10110000000C11F4882352F0BB0F40F4BF2B11F4F4
:1011100060FF04C06F5F7F4F8F4F9F4F089557FD53
:101120009058440F551F59F05F3F71F04795880F55
:1011300097FB991F61F09F3F79F0879508951216EC
:1011400013061406551FF2CF4695F1DF08C0161698
:1011500017061806991FF1CF869571056105089449
:101160000895E894BB2766277727CB0197F9089560
:101170000E942A0908F48FEF08950E94D0080C9469
:101180007E080E94700838F00E94770820F09523AE
:1011900011F00C9467080C946D0811240C94B2089B
:1011A0000E948F0870F3959FC1F3950F50E0551F73
:1011B000629FF001729FBB27F00DB11D639FAA27AC
:1011C000F00DB11DAA1F649F6627B00DA11D661FFB
:1011D000829F2227B00DA11D621F739FB00DA11D1C
:1011E000621F839FA00D611D221F749F3327A00DD6
:1011F000611D231F849F600D211D822F762F6A2F72
:1012000011249F5750409AF0F1F088234AF0EE0FD6
:10121000FF1FBB1F661F771F881F91505040A9F703
:101220009E3F510580F00C9467080C94B2085F3F14
:10123000E4F3983ED4F3869577956795B795F7953F
:10124000E7959F5FC1F7FE2B880F911D96958795B7
:1012500097F90895990F0008550FAA0BE0E8FEEFE3
:1012600016161706E807F907C0F012161306E4076A
:10127000F50798F0621B730B840B950B39F40A2663
:1012800061F0232B242B252B21F408950A2609F441
:10129000A140A6958FEF811D811D0895052E97FB16
:1012A0001EF400940E94650957FD07D00E946D0945
:1012B00007FC03D04EF40C94650950954095309589
:1012C00021953F4F4F4F5F4F0895909580957095B2
:1012D00061957F4F8F4F9F4F0895A1E21A2EAA1B51
:1012E000BB1BFD010DC0AA1FBB1FEE1FFF1FA217D6
:1012F000B307E407F50720F0A21BB30BE40BF50BD3
:10130000661F771F881F991F1A9469F7609570955B
:10131000809590959B01AC01BD01CF010895F89493
:02132000FFCFFD
:10132200A53132333435363738390203040506071E
:1013320031082C3D536574206465662E20726F74EB
:101342006174696F6E007269676874006C656674B7
:10135200200053746F700053706565643A00252055
:101362006469723A004600420052004C00446973BC
:04137200742E3A009B
:00000001FF
