S01E00004F62737461636C652061766F6964616E6365206361722E73726563B9
S11300000C942A000C9459000C9447000C9447005B
S11300100C9447000C9447000C9447000C94470040
S11300200C9447000C9447000C9447000C94470030
S11300300C9447000C9447000C9447000C94470020
S11300400C9447000C9447000C9447000C94470010
S11300500C94470011241FBECFE5D8E0DEBFCDBF0E
S113006010E0A0E6B0E0E4E9FAE002C005900D92E9
S1130070AC36B107D9F720E0ACE6B0E001C01D9280
S1130080A537B207E1F70E9451020C9448050C947D
S113009000000E94B4000E9464030E94130162E302
S11300A070E080E090E00E948B030E94C7030895F3
S11300B008951F920F920FB60F9211242F933F931E
S11300C04F935F936F937F938F939F93AF93BF935C
S11300D0EF93FF93809170008F5F80937000813065
S11300E0B1F40E94B80090936F0080936E0060E0BA
S11300F080E00E94AE0180E690E00E949B01609146
S11301006E0070916F0080E090E00E94C6018091C3
S113011070008230C1F40E94B80090936D00809307
S11301206C0060E081E00E94AE0186E690E00E94EF
S11301309B0160916C0070916D0080E090E00E94E2
S1130140C60110927000FF91EF91BF91AF919F9102
S11301508F917F916F915F914F913F912F910F906C
S11301600FBE0F901F9018950E94580380E00895C9
S1130170CF93DF9300D0CDB7DEB71A821982CE01B8
S113018001960E94D20389819A810F900F90DF918A
S1130190CF910895CF93C82F0E94640340E061E09B
S11301A080E00E94D50240E062E080E00E94D50237
S11301B040E063E080E00E94D5028BB39C2F907FE7
S11301C08F70892B8BBB41E063E080E00E94D502F5
S11301D061E070E080E090E00E948B0340E063E027
S11301E080E00E94D50220E1C29FC00111249BB38C
S11301F09F70892B8BBB41E063E080E00E94D502B5
S113020061E070E080E090E00E948B0340E063E0F6
S113021080E00E94D50265E070E080E090E00E94FA
S11302208B03CF9108950E94640341E061E080E074
S11302300E94560241E062E080E00E94560241E0E2
S113024063E080E00E94560241E064E080E00E94A6
S1130250560241E065E080E00E94560241E066E01B
S113026080E00E94560241E067E080E00E9456026E
S113027064E170E080E090E00E948B0383E30E94DD
S1130280CA0082E30E94CA0088E20E94CA008CE08D
S11302900E94CA0086E00E94CA0082E00E94CA004E
S11302A081E00E94CA000895CF93C82F41E061E025
S11302B080E00E94D50240E062E080E00E94D50226
S11302C040E063E080E00E94D5028BB39C2F907FD6
S11302D08F70892B8BBB41E063E080E00E94D502E4
S11302E061E070E080E090E00E948B0340E063E016
S11302F080E00E94D50220E1C29FC00111249BB37B
S11303009F70892B8BBB41E063E080E00E94D502A3
S113031061E070E080E090E00E948B0340E063E0E5
S113032080E00E94D50265E070E080E090E00E94E9
S11303308B03CF9108950F931F93CF938C01C0E04B
S113034003C00E945401CF5FF801EC0FF11D8081BE
S11303508111F7CFCF911F910F910895CF93DF9320
S113036000D0CDB7DEB790E8998390EC9A83E1E0B2
S1130370F0E0EC0FFD1FE80FF11D8081860F0E9455
S1130380CA000F900F90DF91CF9108951F93CF93E0
S1130390DF93CDB7DEB72A970FB6F894DEBF0FBE52
S11303A0CDBF9923DCF590958095709561957F4F2D
S11303B08F4F9F4F10E013C02AE030E040E050E040
S11303C00E940705E1E0F0E0EC0FFD1FE10FF11DD5
S11303D0605D6083622F732F842F952F1F5F161625
S11303E017061806190644F3E1E0F0E0EC0FFD1FD0
S11303F0E10FF11D8DE280831F5F0DC0E12FF0E05E
S1130400319781E090E08C0F9D1FE80FF91F8081E8
S11304100E94540111501111F1CF39C061157105B9
S11304208105910521F480E30E94540130C0161621
S1130430170618061906ACF02AC02AE030E040E09E
S113044050E00E940705E1E0F0E0EC0FFD1FE10F32
S1130450F11D605D6083622F732F842F952F1F5FC2
S113046001C010E0161617061806190634F30DC05D
S1130470E12FF0E0319781E090E08C0F9D1FE80FB1
S1130480F91F80810E94540111501111F1CF2A9655
S11304900FB6F894DEBF0FBECDBFDF91CF911F9191
S11304A008950E9449000E945800FDCF442319F08A
S11304B04130E9F174C0813099F028F08230E9F0DC
S11304C0833041F16EC02AB381E090E002C0880F0E
S11304D0991F6A95E2F7809582238ABB80E008958C
S11304E027B381E090E002C0880F991F6A95E2F774
S11304F08095822387BB80E0089524B381E090E057
S113050002C0880F991F6A95E2F78095822384BB05
S113051080E0089521B381E090E002C0880F991F24
S11305206A95E2F78095822381BB80E0089581304B
S113053091F028F08230D9F0833029F134C02AB305
S113054081E090E002C0880F991F6A95E2F7822B40
S11305508ABB80E0089527B381E090E002C0880F51
S1130560991F6A95E2F7822B87BB80E0089524B334
S113057081E090E002C0880F991F6A95E2F7822B10
S113058084BB80E0089521B381E090E002C0880F2D
S1130590991F6A95E2F7822B81BB80E0089581E080
S11305A0089581E0089581E00895442319F04130CD
S11305B0E9F174C0813099F028F08230E9F0833099
S11305C041F16EC02BB381E090E002C0880F991F07
S11305D06A95E2F7809582238BBB80E0089528B367
S11305E081E090E002C0880F991F6A95E2F7809538
S11305F0822388BB80E0089525B381E090E002C0A7
S1130600880F991F6A95E2F78095822385BB80E065
S1130610089522B381E090E002C0880F991F6A9583
S1130620E2F78095822382BB80E00895813091F0C7
S113063028F08230D9F0833029F134C02BB381E023
S113064090E002C0880F991F6A95E2F7822B8BBB5A
S113065080E0089528B381E090E002C0880F991FDC
S11306606A95E2F7822B88BB80E0089525B381E088
S113067090E002C0880F991F6A95E2F7822B85BB30
S113068080E0089522B381E090E002C0880F991FB2
S11306906A95E2F7822B82BB80E0089581E0089599
S11306A081E0089581E008958FB780688FBF089531
S11306B00E94540385B7816085BF85B7826085BF7A
S11306C08BB780648BBF089583B78F7783BF83B75D
S11306D08F7B83BF83B7877F83BF83B78F7E83BFBF
S11306E083B78F7D83BF80E0089583B7816083BF24
S11306F083B78D7F83BF83B7846083BF80E0089511
S113070083B78E7F83BF83B78D7F83BF83B78B7F90
S113071083BF80E008950E9479042FE632E143E824
S113072051E40E94D8030E944A04609371007093BC
S11307307200809373009093740012BE0E9475033C
S113074040E050E0BA010AC008B600FEFDCF88B709
S1130750816088BF4F5F5F4F6F4F7F4F8091710003
S113076090917200A0917300B091740048175907DA
S11307706A077B0748F3109271001092720010927E
S11307807300109274000E94800380E008958EB577
S113079081608EBD8EB58D7F8EBD8EB584608EBD1D
S11307A080E008952CB53DB5FC0131832083089584
S11307B00E94EC030C94CD040E94C60458F00E94DD
S11307C0BF0440F029F45F3F29F00C94B6045111A2
S11307D00C9401050C94BC040E94DE0468F3992374
S11307E0B1F3552391F3951B550BBB27AA27621729
S11307F07307840738F09F5F5F4F220F331F441F36
S1130800AA1FA9F335D00E2E3AF0E0E832D0915069
S11308105040E695001CCAF72BD0FE2F29D0660F56
S1130820771F881FBB1F261737074807AB07B0E899
S113083009F0BB0B802DBF01FF2793585F4F3AF09F
S11308409E3F510578F00C94B6040C9401055F3F6B
S1130850E4F3983ED4F3869577956795B795F79525
S11308609F5FC9F7880F911D9695879597F908950D
S1130870E1E0660F771F881FBB1F621773078407A9
S1130880BA0720F0621B730B840BBA0BEE1F88F7B8
S1130890E09508950E94E60488F09F5798F0B92FD8
S11308A09927B751B0F0E1F0660F771F881F991FA1
S11308B01AF0BA95C9F714C0B13091F00E9400053E
S11308C0B1E008950C940005672F782F8827B85F4E
S11308D039F0B93FCCF3869577956795B395D9F7F9
S11308E03EF490958095709561957F4F8F4F9F4F03
S11308F00895E89409C097FB3EF49095809570950F
S113090061957F4F8F4F9F4F9923A9F0F92F96E957
S1130910BB279395F695879577956795B795F111CC
S1130920F8CFFAF4BB0F11F460FF1BC06F5F7F4F69
S11309308F4F9F4F16C0882311F096E911C077237B
S113094021F09EE8872F762F05C0662371F096E884
S1130950862F70E060E02AF09A95660F771F881F53
S1130960DAF7880F9695879597F9089597F99F6711
S113097080E870E060E008959FEF80EC0895002423
S11309800A941616170618060906089500240A94F0
S113099012161306140605060895092E0394000C76
S11309A011F4882352F0BB0F40F4BF2B11F460FF05
S11309B004C06F5F7F4F8F4F9F4F089557FD90582E
S11309C0440F551F59F05F3F71F04795880F97FB0F
S11309D0991F61F09F3F79F08795089512161306C9
S11309E01406551FF2CF4695F1DF08C016161706F8
S11309F01806991FF1CF869571056105089408952D
S1130A00E894BB2766277727CB0197F90895052E2D
S1130A1097FB1EF400940E941E0557FD07D00E9408
S1130A20260507FC03D04EF40C941E055095409502
S1130A30309521953F4F4F4F5F4F08959095809586
S1130A40709561957F4F8F4F9F4F0895A1E21A2EA5
S1130A50AA1BBB1BFD010DC0AA1FBB1FEE1FFF1F5E
S1130A60A217B307E407F50720F0A21BB30BE40BAE
S1130A70F50B661F771F881F991F1A9469F76095F5
S1130A807095809590959B01AC01BD01CF010895AF
S1070A90F894FFCF04
S10F0A947431203D20007432203D20000D
S9030000FC
