S01E00004F62737461636C652061766F6964616E6365206361722E73726563B9
S11300000C942A000C9460000C9447000C94470054
S11300100C9447000C9447000C9447000C94470040
S11300200C9447000C9447000C9447000C94470030
S11300300C9447000C9447000C9447000C94470020
S11300400C9447000C9447000C9447000C94470010
S11300500C94470011241FBECFE5D8E0DEBFCDBF0E
S113006010E0A0E6B0E0E4EAFAE002C005900D92E8
S1130070AC36B107D9F720E0ACE6B0E001C01D9280
S1130080A537B207E1F70E943E020C9450050C9488
S1130090000040E062E083E00E9443020E944503C6
S11300A00E9451030E94B4030E94000162E370E0C5
S11300B080E090E00E9478030E94CF0308950895A1
S11300C01F920F920FB60F9211242F933F934F93C9
S11300D05F936F937F938F939F93AF93BF93EF93AC
S11300E0FF93809170008F5F809370008130A1F442
S11300F08EE690E00E94DA0360E080E00E949B01BB
S113010080E690E00E94880160916E0070916F001B
S113011080E090E00E94B301809170008230B1F4DD
S11301208CE690E00E94DA0360E081E00E949B018B
S113013086E690E00E94880160916C0070916D00E9
S113014080E090E00E94B30110927000FF91EF9163
S1130150BF91AF919F918F917F916F915F914F91DB
S11301603F912F910F900FBE0F901F901895CF9332
S1130170C82F0E94510340E061E080E00E94C20267
S113018040E062E080E00E94C20240E063E080E080
S11301900E94C2028BB39C2F907F8F70892B8BBBE4
S11301A041E063E080E00E94C20261E070E080E030
S11301B090E00E94780340E063E080E00E94C20285
S11301C020E1C29FC00111249BB39F70892B8BBB7C
S11301D041E063E080E00E94C20261E070E080E000
S11301E090E00E94780340E063E080E00E94C20255
S11301F065E070E080E090E00E947803CF9108957C
S11302000E94510341E061E080E00E94430241E02A
S113021062E080E00E94430241E063E080E00E94EB
S1130220430241E064E080E00E94430241E065E073
S113023080E00E94430241E066E080E00E944302C5
S113024041E067E080E00E94430264E170E080E006
S113025090E00E94780383E30E94B70082E30E9447
S1130260B70088E20E94B7008CE00E94B70086E0E5
S11302700E94B70082E00E94B70081E00E94B700AC
S11302800895CF93C82F41E061E080E00E94C2024C
S113029040E062E080E00E94C20240E063E080E06F
S11302A00E94C2028BB39C2F907F8F70892B8BBBD3
S11302B041E063E080E00E94C20261E070E080E01F
S11302C090E00E94780340E063E080E00E94C20274
S11302D020E1C29FC00111249BB39F70892B8BBB6B
S11302E041E063E080E00E94C20261E070E080E0EF
S11302F090E00E94780340E063E080E00E94C20244
S113030065E070E080E090E00E947803CF9108956A
S11303100F931F93CF938C01C0E003C00E9441014F
S1130320CF5FF801EC0FF11D80818111F7CFCF91E0
S11303301F910F910895CF93DF9300D0CDB7DEB70F
S113034090E8998390EC9A83E1E0F0E0EC0FFD1FD4
S1130350E80FF11D8081860F0E94B7000F900F9067
S1130360DF91CF9108951F93CF93DF93CDB7DEB77D
S11303702A970FB6F894DEBF0FBECDBF9923DCF5E4
S113038090958095709561957F4F8F4F9F4F10E0AA
S113039013C02AE030E040E050E00E940F05E1E0A5
S11303A0F0E0EC0FFD1FE10FF11D605D6083622F33
S11303B0732F842F952F1F5F16161706180619061C
S11303C044F3E1E0F0E0EC0FFD1FE10FF11D8DE2DD
S11303D080831F5F0DC0E12FF0E0319781E090E052
S11303E08C0F9D1FE80FF91F80810E94410111505D
S11303F01111F1CF39C0611571058105910521F401
S113040080E30E94410130C016161706180619062B
S1130410ACF02AC02AE030E040E050E00E940F0532
S1130420E1E0F0E0EC0FFD1FE10FF11D605D608382
S1130430622F732F842F952F1F5F01C010E01616B3
S113044017061806190634F30DC0E12FF0E03197B2
S113045081E090E08C0F9D1FE80FF91F80810E94BE
S1130460410111501111F1CF2A960FB6F894DEBF55
S11304700FBECDBFDF91CF911F9108950E94490017
S11304800E945F00FDCF442319F04130E9F174C0AC
S1130490813099F028F08230E9F0833041F16EC068
S11304A02AB381E090E002C0880F991F6A95E2F7B1
S11304B0809582238ABB80E0089527B381E090E091
S11304C002C0880F991F6A95E2F78095822387BB43
S11304D080E0089524B381E090E002C0880F991F62
S11304E06A95E2F78095822384BB80E0089521B366
S11304F081E090E002C0880F991F6A95E2F7809529
S1130500822381BB80E00895813091F028F082300D
S1130510D9F0833029F134C02AB381E090E002C0DD
S1130520880F991F6A95E2F7822B8ABB80E00895B1
S113053027B381E090E002C0880F991F6A95E2F723
S1130540822B87BB80E0089524B381E090E002C051
S1130550880F991F6A95E2F7822B84BB80E0089587
S113056021B381E090E002C0880F991F6A95E2F7F9
S1130570822B81BB80E0089581E0089581E0089595
S113058081E00895442319F04130E9F174C08130C9
S113059099F028F08230E9F0833041F16EC02BB33A
S11305A081E090E002C0880F991F6A95E2F7809578
S11305B082238BBB80E0089528B381E090E002C0E1
S11305C0880F991F6A95E2F78095822388BB80E0A3
S11305D0089525B381E090E002C0880F991F6A95C1
S11305E0E2F78095822385BB80E0089522B381E001
S11305F090E002C0880F991F6A95E2F780958223E4
S113060082BB80E00895813091F028F08230D9F0E7
S1130610833029F134C02BB381E090E002C0880F0D
S1130620991F6A95E2F7822B8BBB80E0089528B36B
S113063081E090E002C0880F991F6A95E2F7822B4F
S113064088BB80E0089525B381E090E002C0880F64
S1130650991F6A95E2F7822B85BB80E0089522B347
S113066081E090E002C0880F991F6A95E2F7822B1F
S113067082BB80E0089581E0089581E0089581E0DF
S113068008958FB780688FBF08950E94410385B78E
S1130690816085BF85B7826085BF8BB780648BBF5F
S11306A0089583B78F7783BF83B78F7B83BF83B767
S11306B0877F83BF83B78F7E83BF83B78F7D83BFDD
S11306C080E0089583B7816083BF83B78D7F83BF44
S11306D083B7846083BF80E0089583B78E7F83BF30
S11306E083B78D7F83BF83B78B7F83BF80E00895FB
S11306F00E9481042FE632E143E851E40E94E003C2
S11307000E9452046093710070937200809373008E
S11307109093740012BE0E94620340E050E0BA015C
S11307200AC008B600FEFDCF88B7816088BF4F5F5E
S11307305F4F6F4F7F4F8091710090917200A09135
S11307407300B0917400481759076A077B0748F390
S11307501092710010927200109273001092740043
S11307600E946D0380E008958FB58E7F8FBD8FB595
S11307708D7F8FBD8EB5877F8EBD8EB58F7E8EBDEE
S11307808FB584608FBD8FB588608FBD8FB780684B
S11307908FBF89B79AB784609ABF89BF08958EB511
S11307A081608EBD8EB58D7F8EBD8EB584608EBD0D
S11307B080E008952CB53DB5FC0131832083089574
S11307C00E94F4030C94D5040E94CE0458F00E94B5
S11307D0C70440F029F45F3F29F00C94BE04511182
S11307E00C9409050C94C4040E94E60468F399234C
S11307F0B1F3552391F3951B550BBB27AA27621719
S11308007307840738F09F5F5F4F220F331F441F25
S1130810AA1FA9F335D00E2E3AF0E0E832D0915059
S11308205040E695001CCAF72BD0FE2F29D0660F46
S1130830771F881FBB1F261737074807AB07B0E889
S113084009F0BB0B802DBF01FF2793585F4F3AF08F
S11308509E3F510578F00C94BE040C9409055F3F4B
S1130860E4F3983ED4F3869577956795B795F79515
S11308709F5FC9F7880F911D9695879597F90895FD
S1130880E1E0660F771F881FBB1F62177307840799
S1130890BA0720F0621B730B840BBA0BEE1F88F7A8
S11308A0E09508950E94EE0488F09F5798F0B92FC0
S11308B09927B751B0F0E1F0660F771F881F991F91
S11308C01AF0BA95C9F714C0B13091F00E94080526
S11308D0B1E008950C940805672F782F8827B85F36
S11308E039F0B93FCCF3869577956795B395D9F7E9
S11308F03EF490958095709561957F4F8F4F9F4FF3
S11309000895E89409C097FB3EF4909580957095FE
S113091061957F4F8F4F9F4F9923A9F0F92F96E947
S1130920BB279395F695879577956795B795F111BC
S1130930F8CFFAF4BB0F11F460FF1BC06F5F7F4F59
S11309408F4F9F4F16C0882311F096E911C077236B
S113095021F09EE8872F762F05C0662371F096E874
S1130960862F70E060E02AF09A95660F771F881F43
S1130970DAF7880F9695879597F9089597F99F6701
S113098080E870E060E008959FEF80EC0895002413
S11309900A941616170618060906089500240A94E0
S11309A012161306140605060895092E0394000C66
S11309B011F4882352F0BB0F40F4BF2B11F460FFF5
S11309C004C06F5F7F4F8F4F9F4F089557FD90581E
S11309D0440F551F59F05F3F71F04795880F97FBFF
S11309E0991F61F09F3F79F08795089512161306B9
S11309F01406551FF2CF4695F1DF08C016161706E8
S1130A001806991FF1CF869571056105089408951C
S1130A10E894BB2766277727CB0197F90895052E1D
S1130A2097FB1EF400940E94260557FD07D00E94F0
S1130A302E0507FC03D04EF40C94260550954095E2
S1130A40309521953F4F4F4F5F4F08959095809576
S1130A50709561957F4F8F4F9F4F0895A1E21A2E95
S1130A60AA1BBB1BFD010DC0AA1FBB1FEE1FFF1F4E
S1130A70A217B307E407F50720F0A21BB30BE40B9E
S1130A80F50B661F771F881F991F1A9469F76095E5
S1130A907095809590959B01AC01BD01CF0108959F
S1070AA0F894FFCFF4
S10F0AA47431203D20007432203D2000FD
S9030000FC
