:100000000C942A000C9447000C9447000C94470071
:100010000C9447000C9447000C9447000C94470044
:100020000C9447000C9447000C9447000C94470034
:100030000C9447000C9447000C9447000C94470024
:100040000C9447000C9447000C9447000C94470014
:100050000C94470011241FBECFE5D8E0DEBFCDBF12
:1000600010E0A0E6B0E0E2E3FDE002C005900D92F2
:10007000A037B107D9F720E0A0E7B0E001C01D929A
:10008000A437B207E1F70E9459020C9497060C942A
:100090000000CF93C82F0E94F40340E061E080E0AD
:1000A0000E94370340E062E080E00E94370340E0B6
:1000B00063E080E00E9437038BB39C2F907F8F70AA
:1000C000892B8BBB41E063E080E00E94370361E055
:1000D00070E080E090E00E941B0440E063E080E07C
:1000E0000E94370320E1C29FC00111249BB39F707F
:1000F000892B8BBB41E063E080E00E94370361E025
:1001000070E080E090E00E941B0440E063E080E04B
:100110000E94370365E070E080E090E00E941B04DD
:10012000CF9108950E94F40341E061E080E00E94D5
:10013000B80241E062E080E00E94B80241E063E082
:1001400080E00E94B80241E064E080E00E94B802D2
:1001500041E065E080E00E94B80241E066E080E0B6
:100160000E94B80241E067E080E00E94B80264E1CA
:1001700070E080E090E00E941B0483E30E9449004D
:1001800082E30E94490088E20E9449008CE00E94BC
:10019000490086E00E94490082E00E94490081E017
:1001A0000E9449000895CF93C82F41E061E080E0AC
:1001B0000E94370340E062E080E00E94370340E0A5
:1001C00063E080E00E9437038BB39C2F907F8F7099
:1001D000892B8BBB41E063E080E00E94370361E044
:1001E00070E080E090E00E941B0440E063E080E06B
:1001F0000E94370320E1C29FC00111249BB39F706E
:10020000892B8BBB41E063E080E00E94370361E013
:1002100070E080E090E00E941B0440E063E080E03A
:100220000E94370365E070E080E090E00E941B04CC
:10023000CF9108950F931F93CF938C01C0E003C01B
:100240000E94D300CF5FF801EC0FF11D8081811176
:10025000F7CFCF911F910F910895CF93DF9300D0E7
:10026000CDB7DEB790E8998390EC9A83E1E0F0E0B7
:10027000EC0FFD1FE80FF11D8081860F0E944900E1
:100280000F900F90DF91CF9108951F93CF93DF933D
:10029000CDB7DEB72A970FB6F894DEBF0FBECDBF3D
:1002A0009923DCF590958095709561957F4F8F4FE0
:1002B0009F4F10E013C02AE030E040E050E00E9481
:1002C0005606E1E0F0E0EC0FFD1FE10FF11D605D6F
:1002D0006083622F732F842F952F1F5F16161706CA
:1002E0001806190644F3E1E0F0E0EC0FFD1FE10F02
:1002F000F11D8DE280831F5F0DC0E12FF0E031978B
:1003000081E090E08C0F9D1FE80FF91F80810E9413
:10031000D30011501111F1CF39C06115710581055C
:10032000910521F480E30E94D30030C01616170611
:1003300018061906ACF02AC02AE030E040E050E090
:100340000E945606E1E0F0E0EC0FFD1FE10FF11D09
:10035000605D6083622F732F842F952F1F5F01C014
:1003600010E0161617061806190634F30DC0E12F13
:10037000F0E0319781E090E08C0F9D1FE80FF91FAE
:1003800080810E94D30011501111F1CF2A960FB62F
:10039000F894DEBF0FBECDBFDF91CF911F910895BE
:1003A00041E061E083E00E94B80240E062E083E067
:1003B0000E94B8020E948C0408950F931F93CF935C
:1003C000DF9300D01F92CDB7DEB78C0119821B825C
:1003D0001A8241E061E083E00E9437036AE070E046
:1003E00080E090E00E94570440E061E083E00E94DA
:1003F0003703AE014F5F5F4F62E083E00E94B603B8
:1004000041E067E081E00E94370307C0AE014F5F23
:100410005F4F62E083E00E94B60389818111F6CFCD
:100420000E949F0407C0AE014F5F5F4F62E083E010
:100430000E94B60389818823B1F341E065E081E041
:100440000E94370380E090E00E94B00407C0AE0134
:100450004F5F5F4F62E083E00E94B60389818111A4
:10046000F6CFCE0102960E94AA0441E066E081E048
:100470000E9437036A817B817695679576956795AB
:100480007695679580E090E00E945B0526E933E46D
:100490004BE85CE30E94E9050E942505F8016083B2
:1004A00080E00F900F900F90DF91CF911F910F91EF
:1004B0000895CF93DF931F92CDB7DEB741E065E09B
:1004C00081E00E94B80241E066E081E00E94B8024B
:1004D00041E067E081E00E94B8020E94F4030E94BC
:1004E000920062E370E080E090E00E941B0462E30F
:1004F00070E080E090E00E941B0480E690E00E94A3
:100500001A010E94D001CE0101960E94DD0181E016
:100510000E94490062E370E080E090E00E941B04CA
:1005200060E080E00E942D0186E690E00E941A01C2
:1005300060E081E00E942D01698170E080E090E040
:100540000E94450140E066E081E00E94370368EECA
:1005500073E080E090E00E941B0440E065E081E0F1
:100560000E94370340E067E081E00E943703CBCF71
:10057000442319F04130E9F174C0813099F028F03A
:100580008230E9F0833041F16EC02AB381E090E01F
:1005900002C0880F991F6A95E2F7809582238ABB73
:1005A00080E0089527B381E090E002C0880F991F92
:1005B0006A95E2F78095822387BB80E0089524B393
:1005C00081E090E002C0880F991F6A95E2F780955C
:1005D000822384BB80E0089521B381E090E002C0D3
:1005E000880F991F6A95E2F78095822381BB80E08E
:1005F0000895813091F028F08230D9F0833029F1CC
:1006000034C02AB381E090E002C0880F991F6A9538
:10061000E2F7822B8ABB80E0089527B381E090E067
:1006200002C0880F991F6A95E2F7822B87BB80E092
:10063000089524B381E090E002C0880F991F6A9565
:10064000E2F7822B84BB80E0089521B381E090E043
:1006500002C0880F991F6A95E2F7822B81BB80E068
:10066000089581E0089581E0089581E0089544238C
:1006700019F04130E9F174C0813099F028F08230EE
:10068000E9F0833041F16EC02BB381E090E002C00D
:10069000880F991F6A95E2F7809582238BBB80E0D3
:1006A000089528B381E090E002C0880F991F6A95F1
:1006B000E2F78095822388BB80E0089525B381E02E
:1006C00090E002C0880F991F6A95E2F78095822317
:1006D00085BB80E0089522B381E090E002C0880FDE
:1006E000991F6A95E2F78095822382BB80E0089586
:1006F000813091F028F08230D9F0833029F134C074
:100700002BB381E090E002C0880F991F6A95E2F751
:10071000822B8BBB80E0089528B381E090E002C07B
:10072000880F991F6A95E2F7822B88BB80E00895B5
:1007300025B381E090E002C0880F991F6A95E2F727
:10074000822B85BB80E0089522B381E090E002C057
:10075000880F991F6A95E2F7822B82BB80E008958B
:1007600081E0089581E0089581E00895813099F055
:1007700028F08230E9F0833041F134C089B390E051
:1007800002C0959587956A95E2F7817089BBFA0159
:10079000808380E0089586B390E002C095958795A8
:1007A0006A95E2F7817086BBFA01808380E0089544
:1007B00083B390E002C0959587956A95E2F78170C2
:1007C00083BBFA01808380E0089580B390E002C08B
:1007D000959587956A95E2F7817080BBFA018083D1
:1007E00080E0089581E0089583B78F7783BF83B752
:1007F0008F7B83BF83B7877F83BF83B78F7E83BFA2
:1008000083B78F7D83BF80E0089583B7816083BF06
:1008100083B7826083BF83B78B7F83BF80E00895F7
:1008200083B78E7F83BF83B78D7F83BF83B78B7F73
:1008300083BF80E008950E945B052FE632E143E02C
:1008400050E40E94B3040E942C05609370007093E2
:100850007100809372009093730012BE0E94050491
:1008600040E050E0BA010AC008B600FEFDCF88B7EC
:10087000816088BF4F5F5F4F6F4F7F4F80917000E7
:1008800090917100A0917200B091730048175907C0
:100890006A077B0748F31092700010927100109263
:1008A0007200109273000E94100480E00895DC0131
:1008B000CB01072E7BE0B695A795979587957A95FE
:1008C000D1F7702D8093700090937100A093720007
:1008D000B093730012BE0E94050440E050E0BA01DC
:1008E0000AC008B600FEFDCF88B7816088BF4F5FA1
:1008F0005F4F6F4F7F4F8091700090917100A0917A
:100900007200B0917300481759076A077B0748F3D4
:100910000E94100480E008958FB58E7F8FBD8FB543
:100920008D7F8FBD8EB5877F8EBD8EB58F7E8EBD40
:100930008FB584608FBD8FB588608FBD08958EB5EB
:1009400081608EBD8EB58D7F8EBD8EB58B7F8EBD49
:1009500080E008952CB53DB5FC01318320830895D6
:100960009DBD8CBD08950E94C7040C94AF050E94E4
:10097000A80558F00E94A10540F029F45F3F29F036
:100980000C94980551110C94E3050C949E050E945B
:10099000C00568F39923B1F3552391F3951B550BCB
:1009A000BB27AA2762177307840738F09F5F5F4F42
:1009B000220F331F441FAA1FA9F335D00E2E3AF081
:1009C000E0E832D091505040E695001CCAF72BD099
:1009D000FE2F29D0660F771F881FBB1F26173707EA
:1009E0004807AB07B0E809F0BB0B802DBF01FF271C
:1009F00093585F4F3AF09E3F510578F00C9498055C
:100A00000C94E3055F3FE4F3983ED4F38695779525
:100A10006795B795F7959F5FC9F7880F911D9695D4
:100A2000879597F90895E1E0660F771F881FBB1F30
:100A3000621773078407BA0720F0621B730B840BDD
:100A4000BA0BEE1F88F7E09508950E942C05689474
:100A5000B1110C94E30508950E94C80588F09F57D2
:100A600098F0B92F9927B751B0F0E1F0660F771FD2
:100A7000881F991F1AF0BA95C9F714C0B13091F0C8
:100A80000E94E205B1E008950C94E205672F782FEB
:100A90008827B85F39F0B93FCCF38695779567958D
:100AA000B395D9F73EF490958095709561957F4FF9
:100AB0008F4F9F4F0895E89409C097FB3EF490959F
:100AC0008095709561957F4F8F4F9F4F9923A9F027
:100AD000F92F96E9BB279395F695879577956795B6
:100AE000B795F111F8CFFAF4BB0F11F460FF1BC0FA
:100AF0006F5F7F4F8F4F9F4F16C0882311F096E98D
:100B000011C0772321F09EE8872F762F05C066233A
:100B100071F096E8862F70E060E02AF09A95660FF3
:100B2000771F881FDAF7880F9695879597F90895AC
:100B300097F99F6780E870E060E008959FEF80EC90
:100B4000089500240A941616170618060906089533
:100B500000240A9412161306140605060895092E99
:100B60000394000C11F4882352F0BB0F40F4BF2B08
:100B700011F460FF04C06F5F7F4F8F4F9F4F089548
:100B800057FD9058440F551F59F05F3F71F047953E
:100B9000880F97FB991F61F09F3F79F08795089523
:100BA000121613061406551FF2CF4695F1DF08C042
:100BB000161617061806991FF1CF8695710561055F
:100BC00008940895E894BB2766277727CB0197F907
:100BD00008950E94FC050C94AF050E94A10538F011
:100BE0000E94A80520F0952311F00C9498050C9410
:100BF0009E0511240C94E3050E94C00570F3959F97
:100C0000C1F3950F50E0551F629FF001729FBB2703
:100C1000F00DB11D639FAA27F00DB11DAA1F649F9F
:100C20006627B00DA11D661F829F2227B00DA11D52
:100C3000621F739FB00DA11D621F839FA00D611DD8
:100C4000221F749F3327A00D611D231F849F600DF9
:100C5000211D822F762F6A2F11249F5750409AF022
:100C6000F1F088234AF0EE0FFF1FBB1F661F771FAE
:100C7000881F91505040A9F79E3F510580F00C9479
:100C800098050C94E3055F3FE4F3983ED4F3869512
:100C900077956795B795F795E7959F5FC1F7FE2B19
:100CA000880F911D9695879597F90895052E97FBC6
:100CB0001EF400940E946D0657FD07D00E94750631
:100CC00007FC03D04EF40C946D065095409530957A
:100CD00021953F4F4F4F5F4F0895909580957095A8
:100CE00061957F4F8F4F9F4F0895A1E21A2EAA1B47
:100CF000BB1BFD010DC0AA1FBB1FEE1FFF1FA217CC
:100D0000B307E407F50720F0A21BB30BE40BF50BC8
:100D1000661F771F881F991F1A9469F76095709551
:100D2000809590959B01AC01BD01CF010895F89489
:020D3000FFCFF3
:100D32004D6F6861620044697374616E636500009F
:00000001FF
